:020000040800F2
:10400000005000206141000867AC00086FAC000858
:104010006DAC00086BAC000869AC00080000000043
:10402000000000000000000000000000C1AC00081B
:1040300065AC00080000000071AC000831AC00085D
:10404000A9410008A9410008A9410008A9410008A8
:10405000A9410008A9410008A9410008A941000898
:10406000A9410008A9410008A941000825AC0008A1
:10407000A9410008A9410008A9410008A941000878
:1040800031A3000825A3000875AA0008A94100086B
:10409000A9410008A9410008A94100080DA3000892
:1040A000A941000869AA0008A9410008A94100081F
:1040B00051AA00085DAA0008A941000885A50008CA
:1040C0003DA30008A9410008A9410008A941000832
:1040D000A9410008A9410008A9410008A941000818
:1040E000A9410008A9410008A941000800000000FA
:1040F00000000000000000000000000000000000C0
:0C41000000000000000000005FF8E0F18B
:1041100010B5054C237833B9044B13B10448AFF301
:1041200000800123237010BDD0010020000000009A
:10413000D8AD000808B5034B1BB103490348AFF3E2
:10414000008008BD00000000D4010020D8AD0008A8
:10415000034613F8012B002AFBD1181A01387047C7
:10416000002103E00B4B5B58435004310A480B4BD2
:1041700042189A42F6D30A4A02E00023136004323E
:10418000084B9A42F9D306F0ADFD06F0D1FD05F0DB
:1041900069FAFEE778C4000800000020CC01002086
:1041A000D0010020641B0020FEE70000134B10B577
:1041B000DB68C3F30223C3F107041A1D042C28BFD4
:1041C0000424062A88BFDA1E4FF0FF3398BF00226E
:1041D000A34021EA0303002803FA02F3ACBF00F175
:1041E0006040074A4FEA0313DBB2B5BF00F00F008F
:1041F00000F56140135480F8003310BD00ED00E07D
:1042000014ED00E0036800201A6A22F001021A622D
:104210001A6A42F001021A62054A934202BF5A6CBE
:1042200042F400425A641A6842F001021A60704770
:10423000002C014090F83C300246012B4FF0020068
:1042400014D0136882F83D005968002021F07001F5
:10425000596059685960996821F08001996099689E
:104260009960012382F83C0082F83D3070470000DD
:10427000F0B50646144A154F15686B69DB4313F019
:10428000020014D06B6913F4806311D02B682021D5
:1042900043F400732B606FF480636B610423136439
:1042A00000230120136382F83C3082F83D10F0BDFA
:1042B0003C68641AA642E0D220211363032082F8EE
:1042C0003D1082F83C30F2E7CC1300209416002019
:1042D000F0B5114DDFF844C02E68070C012F0CBF5C
:1042E0007469B46920EA0404A4B2B4FA84F46409D9
:1042F000A14201D000200EE0DCF80040E41AA24206
:10430000ECD20023202203202B6385F83C3085F873
:104310003D2085F83E30F0BDCC13002094160020DF
:10432000154B70B51D68154E6A6912F0800201D0F8
:1043300000201FE06C6914F480640FD13268521AB7
:104340009042F1D21A6C032042F020021A6420221B
:104350001C6383F83C4083F83D200BE06FF48061E0
:10436000696104211964202101201A6383F83C202B
:1043700083F83D1070BD00BFCC13002094160020C0
:10438000144B70B51D68144E6A6912F0400201D0DA
:1043900000200EE06C6914F010040BD06FF01001D7
:1043A0006961202101201A6483F83C201A6383F894
:1043B0003D1070BD3268521A9042E5D21A6C03204B
:1043C00042F020021A64202283F83C4083F83D200A
:1043D000EFE700BFCC13002094160020214B30B52E
:1043E00019464CF25035204A1468D868C00733D4B7
:1043F000DA68920644BF2022DA60CB68DD0606D474
:10440000CB69DC0703D4C86810F0040023D0154A38
:10441000D36813F0100305D01449CB6943F00203AD
:10442000CB611023D268500706D5104943F004032E
:10443000CA6942F00102CA610A4AD169C90708D5AE
:104440000A48C16941F00401C161D16921F001014B
:10445000D1610120D36030BD1068001BA842C4D9CF
:104460000320F8E70020024094160020A015002049
:1044700015490B681A6A22F001021A621A6A1A6256
:10448000124A93420DD141F21112186A104208D11A
:1044900040F24442186A104202BF5A6C22F40042B1
:1044A0005A6441F21112186A104208D140F2444293
:1044B000186A104202BF1A6822F001021A60012332
:1044C000002081F83D307047AC140020002C0140E2
:1044D0001FB500201A4B1B68DA6BADF800201A6C70
:1044E000ADF802205A6C9B6CADF80420ADF8063094
:1044F000144B1B68DA6BADF808201A6CADF80A2073
:104500005A6C9B6CADF80C20ADF80E306A46034631
:1045100032F8021B01330844082B80B2F8D10A4A52
:10452000137D116932F8134022F81300091B01337F
:10453000014403F007031161137504B010BD00BFFF
:10454000A0120020D01200204C160020037F082B60
:1045500001D1FFF78DBF70470122084B1A7040F25E
:104560002912074B1A80074B1B68DA6240F21B12B4
:104570005A634FF4FA629A62704700BF0E1000202F
:104580008C1600206C1400204AF6AA22014B1B68EE
:104590001A60704720140020F0B5D8B10123174AE3
:1045A00032F823105C00814215D94FF47A76013B32
:1045B00032F823700134C01B7043C91B90FBF1F02B
:1045C00002EB83035D8832F814305B1B584390FB89
:1045D000F6F02844F0BD0133322BE1D14FF47A726A
:1045E000EE23A0F540503138504390FBF3F00A23FE
:1045F000584390FBF2F000F5F570EBE79EC300081E
:1046000048F2E8035843C30B6420584340F23D137B
:10461000B0FBF3F0064B5A8A92B242B15A8A92B278
:10462000824203D85B8A9BB2C01A70470020704751
:1046300068160020F0B55442A0421E46059D134660
:1046400035DD602833DC002800EB0207B6BF4442AA
:104650000024E4B2602FC4BFC0F16002D2B219BB23
:1046600013492718096805EB040C0F4421468A42B8
:1046700013D8102E1BD1102E18BF00230D49234430
:10468000096820442B440844A24210D913F8011BA6
:10469000013400F8011BE4B2F6E71CF801EB01312C
:1046A00007F801EBC9B2E2E70829E4D0E1E7F0BD81
:1046B000F0100020F410002001280A490A4A0B4B90
:1046C00006D10B4808600821117006221A70704745
:1046D00002280CBF074808480860102111700C22FE
:1046E000F4E700BF101000200F100020BE110020C2
:1046F00068BE00080BC10008A8B70008012873B500
:1047000009D1134BB3F900203AB912490A800822A3
:104710001A8002B070BD0028FBD00F4B811E1C78A0
:104720000E4B0F481B780068DA08624389B201FB20
:104730000201084D0091B5F9006005492246304656
:1047400091F900103444FFF775FF2C80E1E700BFBA
:10475000BC110020BA110020BE1100200F10002053
:104760001010002008B5094A094B02301A601022C7
:10477000084BC0B21A700C22074B1A70FFF7BEFF2D
:10478000BDE808400020FFF797BF00BF0BC100083D
:10479000101000200F100020BE110020F8B51E4B95
:1047A00005460E201C78FFF7DDFF1F20B5FBF0F05B
:1047B0001A4BC0F10A0010F0F80F1968C5B2C0F327
:1047C000C4060BD0F32C8CBF01230D2320460027F9
:1047D0002344DBB2421CD2B2934219D16022F32CA3
:1047E00002FB06F64FF0FF038CBF01220D2205F0FD
:1047F0000705AB402244D2B263F0FF03601CC0B295
:10480000904208D034440D5D1D400D550446F5E737
:104810000F541046DEE7F8BDBA110020F01000205A
:1048200010B5441E14F8010F10B1FFF767FFF9E748
:1048300010BD002313B504290093ADF804308DF8A2
:10484000063030D90A23B0FBF3F403FB1400023026
:104850008DF80500B4FBF3F003FB104302338DF831
:10486000043080B20A23B0FBF3F403FB14000230DF
:104870008DF80300A0B20A23B0FBF3F403FB14008D
:1048800002308DF80200A0B20A23B0FBF3F403FB60
:10489000140002308DF80100A0B209E06846FFF76D
:1048A000BFFF02B010BDDDD00329E4D00129EBD158
:1048B0000A24B0FBF4F304FB130002308DF800006F
:1048C000002AEBD06A4600230C2001399942E5DD2D
:1048D0001478022CE2D102F8010B0133F6E7000054
:1048E00070B5234A9368926883F4007382F04002A3
:1048F000C3F34023C2F3801243EA420053EA420367
:104900001FBF1C4B1A681C4B1A601C4A1378834249
:104910000FD168B1174B1A4A1B6812689B1AB3F57E
:10492000C87F20D9012820D002280CBF08202020D1
:1049300070BD104D124C20B1032B00D1184600233E
:104940000AE029682668891BB1F5C87F09D2012BC6
:1049500002D0022B18BF102310702A68184622605C
:10496000E6E70346F8E70020E2E70420E0E700BFBF
:10497000000801405C1B0020941500200C12002050
:104980001012002037B5002504460120FFF794FEE1
:104990000A4B1D800A4B1D800A4B53F82400FFF779
:1049A0003FFF102308481A4600EB441429464E20C6
:1049B0000094FFF73FFE03B030BD00BFBA110020E6
:1049C000BC110020B0B60008CCC200080320FFF7DD
:1049D000D9BF0220FFF7D6BF0120FFF7D3BF0020C9
:1049E000FFF7D0BF3221094B1A7B0132D2B21A73C2
:1049F000187BB0FBF1F201FB1202D2B21A73187BE2
:104A0000A0F1310358425841704700BF681600209A
:104A1000084BDA8A0A3292B2DA82DA8A92B25A2AD7
:104A200084BF0A22DA82D88A80B2A0F15A0358429F
:104A30005841704768160020084B1A8B013292B219
:104A40001A831A8B92B2322A84BF01221A83188BDE
:104A500080B2A0F1320358425841704768160020D6
:104A6000034A0020537DB3FA83F35B095375704703
:104A70006816002005490020CB7ACA7A03F00103AA
:104A800083F0010363F30002CA72704768160020C6
:104A90000E4BDA7AD97AC2F34112013262F346112F
:104AA000D9720321DA7AC2F34112B2FBF1F101EBC0
:104AB0004101521AD97A62F34611D972D87AC0F3F9
:104AC0004110831E58425841704700BF68160020AD
:104AD000094B5A7A597A9209013262F38711597255
:104AE000597A5A7A890961F387125A72587A800979
:104AF000C31E58425841704768160020184BDA7A96
:104B000012F0080F1A8A92B217D092B94FF4F072CD
:104B100040F252311A821A8A92B28A4284BF00222B
:104B20001A82188A80B2B0F5527F14BF002001208B
:104B300070471A8A143292B2EAE76AB9FA221A82E4
:104B40001A8A92B2B2F5E17F84BF00221A82188AD3
:104B500080B2B0F5E17FE8E71A8A0A3292B2EEE756
:104B600068160020064B0020DA7A12F0100FDA7A6D
:104B70000CBF42F010026FF30412DA72704700BFEC
:104B800068160020074B1A7D0532D2B21A751A7DBD
:104B9000412A84BF00221A75187D3C2894BF00204A
:104BA000012070476816002005490020CB7ACA7A98
:104BB000C3F3400383F0010363F34102CA727047F9
:104BC0006816002005490020CB7ACA7AC3F3800317
:104BD00083F0010363F38202CA72704768160020F3
:104BE0000A200E4B5A7A597AC2F38302013262F3D9
:104BF000850159725A7AC2F38302B2FBF0F100FBCD
:104C000011215A7A61F385025A72587AC0F38300EF
:104C1000A0F1090358425841704700BF68160020B0
:104C2000344BDA7AD97AC2F3C00282F0010262F31D
:104C3000C301D972DA7A12F0080F1A8A92B240D000
:104C4000052002EBC201A031B1FBF0F189B219825B
:104C5000598889B201EBC101A031B1FBF0F189B2F1
:104C600059809A8892B202EBC202A032B2FBF0F2F3
:104C70000A2192B29A801A8A002092B2B2FBF1F213
:104C80001A821A8A92B202EB8202520092B21A82FD
:104C90005A8892B2B2FBF1F25A805A8892B202EB71
:104CA0008202520092B25A809A8892B2B2FBF1F21A
:104CB0009A809A8892B202EB8202520092B29A8053
:104CC00070470920203A02EB820292FBF0F189B290
:104CD0001982598889B2203901EB810191FBF0F1E9
:104CE00089B259809A8892B2203A02EB820292FBF2
:104CF000F0F2BDE7681600200A4B9A7A0132D2B270
:104D00009A729A7A3C2A84BF00229A72064A1278D2
:104D1000632A04BF00229A72987AA0F13C03584299
:104D200058417047681600206C0200200A4B9A799F
:104D30000132D2B29A719A790F2A84BF00229A71F5
:104D4000064A1278632A04BF00229A719879A0F16A
:104D50000F03584258417047681600206C0200202B
:104D6000134BDA7A12F0080F9A8811D0143292B2EB
:104D70009A809A8892B2B2F5117F84BF3C229A80C1
:104D8000988880B2B0F5117F14BF002001207047D1
:104D90000A3292B29A809A8892B2B2F5967F84BF14
:104DA0000A229A80988880B2B0F5967FECE700BF1F
:104DB0006816002005220749CB790133B3FBF2F2D4
:104DC00002EB82029B1ADBB2CB71C879031F5842F7
:104DD00058417047681600202DE9F0470646002428
:104DE00089460120FFF768FC114D124B124FDFF886
:104DF000508093F800A055F8360005EBC6053C80BE
:104E0000A8F80040FFF70CFD68683C80A8F800A0F7
:104E1000FFF706FD2046FFF74FFC084BA8F80040BF
:104E20001B7803FB09F102393980BDE8F08700BF28
:104E3000C0B600080F100020BA110020BE110020DB
:104E4000BC11002005210D20FFF7C6BF38B5114D5C
:104E500005211820FFF7C0FF2B7BB3B10A240122E4
:104E6000287B1146B0FBF4F0FFF7E3FC0A48FFF79C
:104E7000D7FC2B7B0122B3FBF4F004FB1030BDE820
:104E800038401146C0B2FFF7D4BC0448BDE83840F2
:104E9000FFF7C6BC68160020A7AE000860AE000889
:104EA00008B506211720FFF797FF044B0122D88A87
:104EB0000221BDE8084080B2FFF7BBBC68160020A5
:104EC00008B506211620FFF787FF044B0122188B37
:104ED0000221BDE8084080B2FFF7ABBC6816002095
:104EE00005210B20FFF778BF07210C20FFF774BFC7
:104EF00008B507211B20FFF76FFF084BDB7AC3F3D0
:104F00004113012B06D0022B06D00548BDE808400E
:104F1000FFF786BC0348F9E70348F7E76816002067
:104F2000BAAE000864AE000866AE000808B50721F6
:104F30000920FFF751FF094B5B7A9B09022B09D02F
:104F4000032B09D0012B14BF05480648BDE80840D3
:104F5000FFF766BC0448F9E70448F7E76816002045
:104F600068AE00086AAE00086CAE00086EAE0008BD
:104F700008B505210820FFF72FFF084A138A9BB2C6
:104F80003BB1BDE80840108A0321012280B2FFF73F
:104F900050BC0348BDE80840FFF742BC681600203B
:104FA00060AE0008072108B50846FFF715FF084B5B
:104FB0005B7A03F00303012B06D0022B06D00548D1
:104FC000BDE80840FFF72CBC0348F9E70348F7E7C2
:104FD000681600206EAE000870AE000872AE0008C1
:104FE00008B50F200721FFF7F7FE064B0648DB7ACE
:104FF00013F0100F054B08BF1846BDE80840FFF737
:105000000FBC00BF6816002066AE00086AAE00083C
:1050100008B505211420FFF7DFFE074B1A7D22B9E2
:105020000648BDE80840FFF7FBBB187D01220221BE
:10503000FFF7FFFB0248F4E76816002060AE0008A7
:105040009BAE000808B507210420FFF7C5FE054BFD
:105050000022587A0121BDE80840C0F38300FFF721
:10506000E8BB00BF6816002008B505200721FFF740
:10507000B3FE064B0648DB7A13F0080F054B08BF5A
:105080001846BDE80840FFF7CBBB00BF68160020FC
:1050900066AE000877AE000808B505210320FFF7CB
:1050A0009BFE074B9A7A22B90648BDE80840FFF7F5
:1050B000B7BB987A01220221FFF7BBFB0248F4E755
:1050C0006816002060AE000874AE000808B505211F
:1050D0000220FFF781FE0E4B9A7922B90D48BDE8F8
:1050E0000840FFF79DBB9A799879052A08D80122D4
:1050F00000EB800090400221FFF79BFB0648EEE7A3
:10510000053880B201220221FFF793FB0348E6E74E
:105110006816002060AE00086AAE000874AE000891
:1051200008B505210120FFF757FE044B012298889E
:105130000321BDE8084080B2FFF77BBB6816002062
:1051400008B506210020FFF747FE084BDA7952B177
:105150000122D87911460230FFF76BFB0448BDE805
:105160000840FFF75DBB0348F9E700BF6816002061
:105170006AAE000876AE0008002814BF1020112087
:10518000FFF7F0BA08B515200721FFF725FE044BFD
:10519000587DBDE80840003818BF0120FFF7ECBF7C
:1051A0006816002008B50A200721FFF715FE044BFA
:1051B000D87ABDE8084000F00100FFF7DDBF00BF6E
:1051C0006816002008B506200721FFF705FE044BEE
:1051D000D87ABDE80840C0F34000FFF7CDBF00BF5C
:1051E0006816002008B50E200721FFF7F5FD044BD7
:1051F000D87ABDE80840C0F38000FFF7BDBF00BF0C
:10520000681600200B4B5A7A12F03C0FC2F3830051
:105210000FD09A7902F0FF005AB19A79052A89BF16
:10522000987942F21070431F4EF6602098BF9B7928
:10523000584370476816002038B5134B5A7A12F05D
:105240003C0F01D1002038BD9B79002BFAD00F4ACA
:105250000F4B11681B6843EA010288B1002AF2D0A3
:105260000C4D2C68E41AFFF7CDFF8442EAD9286878
:10527000411AFFF7C7FF814294BF00200120E2E7F7
:10528000002ADFD0ECE700BF68160020941500204C
:10529000981500205C1B00200369D0E901128A6088
:1052A00051605968814208BF5A60002202611A6841
:1052B000013A1A601868704730B50C68631C0AD14F
:1052C00003695A684A6091608B605960036808619D
:1052D0000133036030BD00F10802134652681568BF
:1052E000A542FAD9EDE743689A684B608A609A68EC
:1052F00051609960036808610133036070474FF0A3
:10530000500383F31188BFF36F8FBFF34F8FFEE716
:10531000002307B501930A4B1B68013301D0FFF747
:10532000EEFF4FF0500383F31188BFF36F8FBFF38D
:105330004F8F019B002BFCD003B05DF804FB00BF36
:10534000C801002070B5154B154E1C680546306825
:105350000430FFF7A1FF334640B931681148CE6AE7
:1053600001210268B14022EA010202601A68641950
:10537000546007D3BDE870400B4A106819680431C7
:10538000FFF79ABF094A106819680431FFF794FFC4
:10539000074B1A68944238BF1C6070BD5C1B00202C
:1053A000C8150020A4160020D0150020CC15002020
:1053B000381B0020054B1B6833B1054B1B68002BC5
:1053C0000CBF02200020704701207047581B0020AE
:1053D0009C160020064A13681968064B19B94FF04D
:1053E000FF321A6070471268D268D2685268F8E7D4
:1053F000CC150020381B002008B9064B1868026B3A
:105400000020135CA52B02D0C0F38F007047013041
:10541000F7E700BFC81500204FF0805408B50649D3
:1054200006480B68012B04D90460BFF34F8FBFF30C
:105430006F8FFFF7A9F8F4E7D415002004ED00E022
:1054400038B5C368DC680CB9FFF759FF04F11805DB
:105450002846FFF721FF114B1B68E3B9251D28469D
:10546000FFF71AFF01230E49E26A086893400343DD
:1054700014200B6029460B4B00FB0230FFF733FF73
:10548000094BE26A1B68DB6A9A4285BF0120074B21
:105490000020186038BD29460548EFE79C1600201B
:1054A000A4160020D4150020C8150020601B002081
:1054B000441B00202DE9F84F3C4B1B68002B6ED19C
:1054C0003B4B1D6801351D60BDB93A4B1A68126827
:1054D00042B14FF0500383F31188BFF36F8FBFF3D6
:1054E0004F8FFEE7344A1968106818601160334A1C
:1054F000136801331360FFF76DFF314E00243368EA
:10550000304F9D4210D2304B1B68DA6A142353434C
:10551000FB58022B2D4B28BF01241B68002B18BF02
:1055200001242046BDE8F88FDFF888A0DFF8A490BA
:10553000DAF800301B681BB94FF0FF333360E2E745
:10554000DAF80030DB68D3F80CB0DBF804209542C1
:1055500001D23260D7E70BF104084046FFF79CFE0A
:10556000DBF828201AB10BF11800FFF795FE012295
:10557000DBF82C00D9F8003082401A43C9F800202B
:105580001422414602FB0070FFF7ADFE0E4BDBF824
:105590002C201968CB6A9A4228BF0124C8E70C4A1C
:1055A0000024136801331360BBE700BF9C16002082
:1055B0005C1B0020CC150020D01500203C1B0020D7
:1055C000381B0020D4150020C8150020601B0020C7
:1055D000401B0020A4160020024A13680133136008
:1055E000704700BF9C1600201A4A036890420AD0F8
:1055F000B0F1804F07D0A2F59432904203D002F56B
:105600008062904215D14A6823F070031343114A17
:1056100090420AD0B0F1804F07D0A2F59432904268
:1056200003D002F58062904203D1CA6823F440732C
:1056300013434A6923F08003134303608B68C362FA
:105640000B688362034B984204BF0B690363012319
:1056500043617047002C014013B590F83D3004467B
:1056600003F0FF0200687BB9144B84F83C20984299
:1056700016D103F50333DA6942F00202DA61DB691D
:1056800003F002030093009B0223211D84F83D30A8
:10569000FFF7AAFF0123002084F83D3002B010BDBF
:1056A000B0F1804FF0D1064BDA6942F00102DA61C5
:1056B000DB6903F001030193019BE5E7000400406F
:1056C0000010024013B519200021FEF76FFD4FF0C6
:1056D00000721C4B1C4C1A601C4B20469A6942F409
:1056E00000629A619A6902F400620192019A5A6812
:1056F0005A685A685A68164A12685B68154AC3F3B2
:10570000C223D25C144B1B68D340144AB3FBF2F3A0
:10571000134A013B2260636040F2E7320023E260FB
:105720002361A360FFF798FF50B92368DA6842F05D
:105730000102DA601A6842F001021A6002B010BD7C
:105740000120FBE700E100E02C14002000100240E3
:105750000020024072B600084C00002040420F00BA
:10576000002C014010B5036804461A6991070ED554
:10577000DA6892070BD56FF002021A6101220277F4
:105780009B699B0701D1FEF7E1FE00232377236885
:105790001A69500710D5DA6851070DD56FF0040269
:1057A0001A61022222779B6913F4407F02D12046BE
:1057B000FEF7CCFE0023237723681A6912070FD562
:1057C000DA6810070CD56FF008021A6104222277FC
:1057D000DB69990702D12046FEF7B8FE0023237744
:1057E00023681A69D20610D5DA68D0060DD56FF095
:1057F00010021A6108222277DB6913F4407F02D17C
:105800002046FEF7A3FE0023237723681A69D107F9
:105810001CD5DA68D20719D56FF001021A61236826
:10582000B3F1804F34D11E4A1E4913880968013BE9
:105830009BB213801C4B1B78DBB20B640B6C23B345
:1058400013889BB20BB31948FEF7DCFC23681A6976
:10585000100605D5DA68110644BF6FF080021A61A0
:1058600023681A69520605D5DA68500644BF6FF0FE
:1058700040021A6123681A69910605D5DA68920612
:1058800044BF6FF020021A6110BDFEF7F1FDDDE7A5
:10589000074A934201BF074A136801331360D5E7F3
:1058A0000C1000206C140020C0150020AC14002047
:1058B000002C01409416002010B590F83D300446AD
:1058C00003F0FF020BB980F83C200223206884F823
:1058D0003D30211DFFF788FE0123002084F83D3074
:1058E00010BD000070B40425C66B026C34680368F8
:1058F00095402542196832D04D0730D51A68960672
:105900005EBF1A6822F004021A603D4A934219D021
:105910001432934218D01432934217D01432934267
:1059200017D01432934217D0143293420CBF4FF465
:1059300080034FF08063334A5360C36A002B5CD00E
:1059400070BC18470423F6E74023F4E74FF4806364
:10595000F1E74FF48043EEE74FF48023EBE70225B5
:105960009540254235D08D0733D51A68940606D464
:105970001A6822F00A021A60012280F82120204AC7
:10598000934219D01432934218D01432934217D054
:105990001432934217D01432934217D014329342E8
:1059A0000CBF4FF400134FF00073164A53600023EE
:1059B00080F82030836AC1E70223F6E72023F4E76A
:1059C0004FF40073F1E74FF40053EEE74FF4003368
:1059D000EBE70825954025420FD009070DD519683A
:1059E00021F00E011960012303FA02F27260836351
:1059F0004FF480730384036BA0E770BC704700BF53
:105A0000080002400000024008B590F82130022B47
:105A100003D004238363012008BD03681A6822F0C1
:105A20000E021A601A6822F001021A60174A9342A5
:105A30001CD0143293421BD0143293421AD0143229
:105A400093421AD0143293421AD0143293420CBFAC
:105A50004FF480134FF080730D4A53604FF48073FE
:105A60000384436B7BB198470020D5E70123F3E71C
:105A70001023F1E74FF48073EEE74FF48053EBE728
:105A80004FF48033E8E71846C6E700BF080002403D
:105A900000000240F0B590F82040012C34D00124E1
:105AA00090F8215080F82040A5424FF000064FF0BA
:105AB000020427D180F8214004688663266826F016
:105AC00001062660D0E90F67BD40756063604368DA
:105AD000102BC36A0BBFA260A160E160E2604BB112
:105AE000236843F00E0300202360236843F0010382
:105AF0002360F0BD236823F004032360236843F090
:105B00000A03F0E780F820600220F2E7034B01303F
:105B100019681A68521A8242FBD370479416002003
:105B20002DE9F74F00221646644BDFF8A0C1DFF8DD
:105B3000A0E14FF001080D6808FA06F808EA05042C
:105B400038EA05057CD14D68032D07D8013D022DAB
:105B500000F28E80DFE805F09CA1A700122D00F076
:105B60009F8074D8112D00F09580FF2C98BF82463D
:105B70004FF00F0988BF00F1040A4FEA8605DAF8F2
:105B8000008088BF203D09FA05FB28EA0B0802FACD
:105B900005F548EA0505CAF80050D1F804A01AF046
:105BA000805F4DD0464F26F00308BD6908F180485C
:105BB00045F00105BD61BD6908F5803805F00105B6
:105BC000019506F0030B019D4FEA8B0BD8F80850A6
:105BD00009FA0BF925EA09093A4DA84267D005F5FB
:105BE0008065A84265D005F58065A84263D005F5BB
:105BF0008065A8420CBF0325042505FA0BF545EA8C
:105C00000905C8F808501D681AF4803F14BF2543E1
:105C1000A5431D605D681AF4003F14BF2543A543EA
:105C20005D609D681AF4801F14BF2543A5439D60E5
:105C3000DD681AF4001F14BF2C4325EA0404DC605D
:105C40000136102E7FF475AF03B0BDE8F08F1E4F04
:105C5000BD420DD018D8DFF87C904D4508D009F52D
:105C600070294D4504D0A9F580194D457FF47DAFCD
:105C70008A68D2B1012A08BFC0F810804FF008022C
:105C800018BFC0F8148070E76545F1D07545EDE7A1
:105C9000CA686AE7CA68043267E7CA68083264E714
:105CA000CA680C3261E700225FE704225DE7002545
:105CB000A3E70125A1E702259FE700BF00040140FB
:105CC00000100240000801400000221000003110C6
:105CD00000003210000012102DE9F041704C714E9E
:105CE00094F83D3086B003F0FF05002B60D1C02250
:105CF00012230127CDE9022302236B4802A9CDE933
:105D0000047384F83C50FFF70BFF4FF0800E18210E
:105D1000F369664843F40013F361F369644A03F4DA
:105D200000130193019B634BDFF8B0C1C3E903E5A6
:105D3000C3E90005C3E90555C3E90F219D60DD6195
:105D400001684FF0100801EA0C0141EA0E01016000
:105D50004FF480709D631884A3635C62564B57496F
:105D6000C3E9025E4FF4805EC3F81CE04FF0140EEE
:105D7000C3E90018C3E90455C3E90F2E9D610A6801
:105D800002EA0C0242F4845242EA08020A601884D1
:105D90000F211F209D6363635C62FEF707FA4FF0DB
:105DA0000043474D0F2120202B60FEF7FFF96F6065
:105DB0002423216884F83D300B68424A23F0010314
:105DC0000B6073684048C3F30223D35C3F4A1268F8
:105DD000DA406368834294BF3D483E4882428CBFAC
:105DE00000200120002858D1374E3B4DB342B2FB72
:105DF000F5F588BF4FF496704D6083BF68434FF44C
:105E00007A75B0FBF5F0681C88BF0130B3420862B8
:105E100002F1FF3225D85B00B2FBF3F2531C40F6CF
:105E2000FC72134235D0C3F30B03CB61D4E90732C4
:105E300013430B60D4E9032313438B60D4E9053289
:105E40001343CB600B68002043F001030B60202359
:105E5000206484F83D30206384F83E0006B0BDE83D
:105E6000F081A06850B903EB4303B2FBF3F30133B5
:105E7000C3F30B037BB143F40043D6E7192043433C
:105E8000B2FBF3F30133C3F30B0323B143F44043F9
:105E9000CBE70423C9E70123C7E70120DEE700BF02
:105EA000CC13002000100240000C01408000024092
:105EB0000000024044130020881300206C000240C0
:105EC00000E100E072B60008A08601004C0000204E
:105ED0007F841E00FF083D0040420F000FC0FFFFFF
:105EE000F0B5294E1120326885B01368402523F0A3
:105EF000010313600123CDE901030223234869460E
:105F000003930095FFF70CFE802405616946009419
:105F1000FFF706FE652304614FF480020446A16882
:105F2000090628D5122201234027CDE901230223A7
:105F300080256946154803930097FFF7F1FD6946F0
:105F400012480095FFF7ECFD276125613268136860
:105F500043F40043136000BF3268136823F4004326
:105F6000136000BF3268136843F001031360FFF74A
:105F7000B3FE05B0F0BD226100BF00BF00BF00BF8F
:105F8000013B2561CBD1F4E7CC130020000C01408C
:105F9000064B186910F0800007D0054A5A6002F1DC
:105FA00088325A601869C0F3C01070470020024060
:105FB000230167452DE9F843FEF7E6FA35232E4D18
:105FC0002E4CEB60FFF7E4FF0120FFF79FFDFEF78B
:105FD000DBFA237E012B06D001232376FEF7FEF9A0
:105FE00078B300232376FFF7D3FF4FF00008244E49
:105FF000214D244FFEF7C8FA237E012B15D0012333
:1060000036F818902376FEF7E9F960B9E0612B695C
:1060100043F001032B6127F81890FEF7DFF92B6995
:1060200023F001032B610023237608F10108B8F166
:10603000120FDFD1104A136943F080031361BDE8EA
:10604000F88306460F4F07F580684745C9D2E661D9
:106050002B6943F002032B616F612B6943F040030E
:106060002B61FEF7BBF92B6923F002032B6100289B
:10607000B7D107F58067E8E700200240A0150020AF
:106080006816002000FC00080023F7B5019390F883
:1060900024300446012B00F0B980012380F824301D
:1060A00003681F204E680F690D68F21B02EB820225
:1060B0000F32904040F44010BE426FEA000022D8F8
:1060C000D3F838C0013F05FA02F242EA07520CEA5F
:1060D000000002439A639A68D00707D49A68C86997
:1060E00022F4E04222F0010202439A608A69012A06
:1060F00007D1C869B0F5E04F09D1586840F4806015
:106100005860002008E09A6B10409863E3E7A06AAB
:1061100040F02000A06210464F69012F05D1002AEF
:1061200049D15A6842F480525A60092D4FF007074E
:10613000D1F808E005EB450243D9D3F80CC01E3A6C
:1061400097402CEA07070EFA02F23A43DA60A5F10B
:106150001007012F98BF9A68C9689CBF42F40002DB
:106160009A60022EDFF8B4C035D0032E39D0012E4C
:106170003DD15A6902EA0C020A435A61012F15D82F
:10618000234A93423CD19A6812020FD49A68102D88
:1061900042F400029A6009D11E4B1F4A1B68B3FBF0
:1061A000F2F20A2353430193019B33BB002384F88B
:1061B000243003B0F0BDA26A384642F02002A26249
:1061C000B3E7D3F810C097402CEA07070EFA02F2A3
:1061D00017431F61BBE79A6902EA0C020A439A61FE
:1061E000CCE7DA6902EA0C020A43DA61C6E71A6A06
:1061F00002EA0C020A431A62C0E7019B013BD2E7A4
:10620000A36A012043F02003A362CFE70220D0E776
:10621000002401404C00002040420F0000F0FFFF2E
:10622000436A9A6A42F040029A62DA6A42F00402D1
:10623000DA6270477047436A9A6A12F0500F18D1B9
:106240009A6A42F400729A621A68926802F46022B2
:10625000B2F5602F10D1DA6872B99A6A22F48072AE
:106260009A629A6AD20407D49A6A42F001029A6248
:1062700070471B6A1B6B184770470000036810B516
:106280009A68D40701D4002010BD9A6822F0010258
:106290009A60094A14689968C907F4D51168091BFE
:1062A0000229F8D9836A43F010038362C36A43F07A
:1062B0000103C3620120E7E794160020F0B5826A6B
:1062C000044687B0002A3DD1684B0168C2629942FA
:1062D00080F8242003F56C4340F08B809969802579
:1062E00041F4007199614FF400719B694FF40066AD
:1062F00003F400730293029B5D4B5E48C3E90351B4
:106300002021C3E905614FF48051C3E90002D9613E
:1063100059491A649A60D963016821F47F5121F0C8
:10632000300141F4D55101609A634FF480721A84B0
:1063300023625C620F211220FDF738FF4FF48022A8
:106340004E4B1A602046FFF799FFA36A13F0100323
:1063500040F08680002840F08380A26AE569616889
:1063600022F4885222F0020242F002022943A56878
:10637000A262E268B5F5807F41EA420159D0012D61
:1063800014BF00274FF480776669012E07D1002AD9
:1063900051D1A269013A47EA423646F400672268C1
:1063A000B5F5807F566826F4694646EA07065660CA
:1063B0009768334E06EA070646EA0106966001D062
:1063C000012D02D12369013B1B05D56A25F4700517
:1063D0002B43D36292682B4B1340994234D1002354
:1063E000E362A36A23F0030343F00103A36207B04F
:1063F000F0BD9A69032542F480629A619B6902A903
:1064000003F480630193019B01231F48CDE902350A
:10641000FFF786FB802302A91C48CDE90235FFF770
:106420007FFB0223184802A9CDE90235FFF778FB6C
:1064300080E72F46A8E7A26A42F02002A262E26A41
:1064400042F00102E262AAE7A36A23F0120343F0DA
:106450001003A362E36A43F00103E3620120C6E78D
:10646000A36A43F01003A362F8E700BF00240140D1
:1064700000130020080002400000024000E100E09C
:10648000FDF7E1FFFE0E1FFF000C01400008014078
:10649000002337B5026801939368DB0702D500201B
:1064A00003B030BD9368124943F001039360114B70
:1064B0001B68B3FBF1F30193019BABB90E490D6867
:1064C000936813F00103EAD10C68641B022CF7D91E
:1064D000826A80F8243042F010028262C26A42F07E
:1064E0000102C2620120DBE7019B013BE3E700BF41
:1064F00040420F004C0000209416002010B590F888
:1065000024300446012B4AD0012380F82430FFF7C1
:10651000BFFF00283FD1A36A224A23F4405323F04F
:10652000010343F48053A3622368934205D1A2F58B
:106530008062526812F4702F25D1A26A22F4801270
:10654000A262A26A12F4807208BFE262002284F89A
:1065500024206FF004021A605A68520512D49A6817
:1065600002F4E042B2F5E04F11D10E4A934205D158
:10657000A2F58062526812F4702F08D19A6842F432
:1065800002129A6010BDA26A42F48012D8E79A689B
:1065900042F40042F5E7002384F82430F2E70220B9
:1065A000F0E700BF00280140002337B5019390F8C1
:1065B00024300446012B5FD0012380F82430FFF7FC
:1065C0005DFE0546002839D1A36A2C4823F4885380
:1065D00023F0020343F00203A362294B1A68294BFC
:1065E00059685B68C1F3C221415CC3F38133013355
:1065F00022FA01F15B00B1FBF3F3B2FBF3F25200BC
:106600000192019BF3B92046FFF742FF23689A6885
:1066100042F008029A601C4A10689968090715D46C
:10662000996841F0040199601068996849071ED47F
:10663000A36A23F0030343F00103A362002384F859
:10664000243011E0019B013B0193DAE71168091A3C
:106650000A29E2D9A36A012523F0120343F01003AB
:10666000A362002384F82430284603B030BD1168AB
:10667000091A0A29D9D9EDE70225F5E772B600080B
:106680004C000020001002409416002008B5EFF3E3
:1066900005830F2B07D90D4A9B5C0D4A12789A424D
:1066A00001D9FEF72CFE0B4B0B4A1B68126803F452
:1066B000E063934208D94FF0500383F31188BFF38E
:1066C0006F8FBFF34F8FFEE708BD00BFF0E300E020
:1066D0008E1600200CED00E090160020202210B550
:1066E000214B83F83D20214B1868002835D0036CDE
:1066F00043B14FF0500383F31188BFF36F8FBFF3A3
:106700004F8FFEE7036853B9836843B14FF05003DE
:1067100083F31188BFF36F8FBFF34F8FFEE7FFF74F
:10672000B5FFEFF311844FF0500383F31188BFF3EB
:106730006F8FBFF34F8F826BC36B9A420BD290F86F
:1067400045100132FF294BB2826307D1436A13B16E
:106750002430FEF775FE84F3118810BD01335BB25F
:1067600080F84530F7E700BFCC130020C0110020AF
:10677000436A1A68116821F4806111600021586B26
:1067800059854163986B416393F83D0060284FF051
:10679000200083F83D0083F83E1008BF1964136899
:1067A00023F001031360FFF799BF436A19680A6871
:1067B00022F480620A60002220215A8583F83D106D
:1067C00083F83E201A6C42F010021A64FFF786BF6D
:1067D000426A92F83D3092F83E10212BD8B2C9B2ED
:1067E000136803D022280CD120290AD1596821F43A
:1067F00000615960002151855A6842F440725A6024
:106800007047196821F480611960196841F40071BA
:106810001960596821F480515960596821F4006168
:10682000596000235385136C0BB1FFF757BF20212C
:1068300082F83D1092F83E1082F83E30F5E70000F5
:10684000054A08B513680BB9FEF759FD013B136003
:106850000BB983F3118808BDC801002008B54FF0BB
:10686000500383F31188BFF36F8FBFF34F8F074A35
:1068700013680133012B136006D1054B1B6813F01D
:10688000FF0F01D0FEF73BFD08BD00BFC80100208F
:1068900004ED00E0F8B5FFF7E1FF0E4C0E4A076883
:1068A0001668236845689F4201D0B54210D90B682D
:1068B000771BBB420AD99B1B2B440B6023680360E8
:1068C000136843600020FFF7BBFFF8BD00230B6097
:1068D0000120F8E73C1B00205C1B002031492DE91A
:1068E000F8430B6843B94FF0500383F31188BFF3AB
:1068F0006F8FBFF34F8FFEE7FFF7B0FF0B68013BD1
:106900000B600C6824B10020FFF79AFFBDE8F88304
:10691000254B1B68002BF6D0244D254EDFF8A480B4
:106920001FE0EB680127DC6804F1040904F118009A
:10693000FEF7B2FC4846FEF7AFFC1420E26A31686D
:1069400007FA02F30B4300FB028049463360FEF76F
:10695000CAFC184BE26A1B68DB6A9A4201D3164BE9
:106960001F602B68002BDCD10CB1FEF733FD134DFB
:106970002C6844B10127104EFEF79CFD00B1376032
:10698000013CF9D12C600C4B1B68002BBBD04FF0A5
:1069900080520B4B1A60BFF34F8FBFF36F8F0120F4
:1069A000B2E700BF9C16002098160020441B002070
:1069B000A4160020C8150020601B0020401B0020EA
:1069C00004ED00E0D415002008B540B94FF0805226
:1069D0000A4B1A60BFF34F8FBFF36F8F08BD084B90
:1069E0001B680BB1FEF78BFCFEF7F6FDFEF7AAFC69
:1069F000FFF774FF0028E9D0F0E700BF04ED00E0E6
:106A00009C16002008B56420FFF7DEFFFBE732206C
:106A1000FFF7DABF70B50D4D2E680644FDF760FF35
:106A2000044654B1FDF75CFF0446FFF7F0FF2B6806
:106A30009E42F6D270BD002CFCD1FDF751FF0446FA
:106A4000FFF7E5FF2B689E42F5D2F3E75C1B0020C1
:106A50002DE9F0410446FFF701FF4FF0010890F8DF
:106A600045501B4F6DB200F12406002D17DCFF23AB
:106A70004FF0010884F84530FFF7E2FEFFF7EEFE25
:106A800094F84450124F6DB204F11006002D12DC40
:106A9000FF2384F84430BDE8F041FFF7D1BE636ABC
:106AA000002BE4D03046FEF7CBFC08B1C7F80080DD
:106AB000013D6DB2D9E72369002BE9D03046FEF7DE
:106AC000BFFC08B1C7F80080013D6DB2DEE700BF32
:106AD000601B00202DE9F0439F4B85B01C683223DA
:106AE000019344B94FF0500383F31188BFF36F8FC4
:106AF000BFF34F8FFEE7256C45B14FF0500383F392
:106B00001188BFF36F8FBFF34F8FFEE7FEF752FC84
:106B100050B9019B63B14FF0500383F31188BFF369
:106B20006F8FBFF34F8FFEE728468C4F8C4E9FE050
:106B30000546FAE7019B5BB9002D00F041814FF05B
:106B4000500383F31188BFF36F8FBFF34F8FFEE7BE
:106B500028B9844B1B680293834B1B680393FFF790
:106B60006FFEFEF739FDFFF779FE94F84430FF2BF6
:106B700004BF002384F8443094F84530FF2B04BF51
:106B8000002384F84530FFF75BFE01A902A8FFF758
:106B900081FE002840F0A480FFF760FEA36B002B6D
:106BA0005ED1FFF74DFE2368DFF8C481002B3DD195
:106BB000FFF754FEA568002D35D0D8F80020EB6A09
:106BC000D26A934280F08380AA69002AA1BFD8F8D4
:106BD0000020D26AC2F10602AA61142202FB0363FA
:106BE0006A699A426ED105F104094846FEF754FBE2
:106BF0005E4B38B90120E96A1A6800FA01F122EA0D
:106C000001021A60D8F800201968D26AEA620125E8
:106C100005FA02F0084318601420494600FB0260A0
:106C2000FEF761FB0120FFF70BFE0546D8F80010C8
:106C3000DDF80490183104F12400FEF73DFB4846CE
:106C4000FEF780FB2046FFF703FFFFF747FE70B912
:106C50004FF080533B60BFF34F8FBFF36F8F06E061
:106C6000FFF7EEFD2046FFF7F3FEFFF737FE0120AA
:106C7000FFF7F4FDA36B002B3FF45CAF013BA36374
:106C8000236843B93A4B1A681AB119688A6D013200
:106C90008A651B68A360236963B104F11000FEF7E5
:106CA000CFFB38B14FF080522C4B1A60BFF34F8F9F
:106CB000BFF36F8FFFF7C4FD012505F0010005B09C
:106CC000BDE8F083D8F80030DB6AEB62AAE7D8F8B9
:106CD0000030686DDB6A98422CBF00200120A2E7DB
:106CE0002046FFF7B5FEFFF7F9FDFFF7B7FDA36BF1
:106CF00013B1FFF7A5FDBAE7FFF7A2FD002DDCD029
:106D0000FFF7ACFD636A1BB1236B1B68C3F106037D
:106D1000A468002C54D0A16D41B94FF0500383F307
:106D20001188BFF36F8FBFF34F8FFEE7626D934201
:106D300038BF1346E26A934242D0012940D10C4940
:106D400009688C4216D14FF0500383F31188BFF3CA
:106D50006F8FBFF34F8FFEE7C011002004ED00E0FE
:106D6000D41500203C1B00205C1B0020A416002032
:106D7000C8150020A169E3620029A4BFC3F106037E
:106D8000A3611423104D03FB02526369934217D190
:106D9000261D3046FEF780FA0C4AE46A28B9012025
:106DA0001368A04023EA0003136001231420116834
:106DB000A3400B4300FB045031461360FEF793FAE7
:106DC000FFF73EFD002578E7D4150020A41600202B
:106DD00006480068006880F3088862B661B6BFF3B1
:106DE0004F8FBFF36F8F00DF00BF000008ED00E0A2
:106DF0000023084910B501EB8001184651F83340D3
:106E00000133A2B202EB1442102B1044F6D1C0F3AE
:106E10008F0010BDEC0100202DE9F0471A4E04460A
:106E200037788946DFF8688067B1C24600250120BF
:106E3000FFF7DEFF0135EDB2202D4AF8040BF6D145
:106E4000013F3770B9F1000F0AD00120FFF7D0FFE2
:106E50000E4B1A7848F82200013202F01F021A7015
:106E6000002213460A49013251F8040BD2B2202AFB
:106E70000344F8D1012C38BF01245B099B00B3FB0C
:106E8000F4F080B2BDE8F0877C01002014120020ED
:106E90001812002008B5084B0146D88980B2FFF7C8
:106EA000BBFF4B234043B0FBF3F0044BC0EB00208F
:106EB0001B88B0FBF3F008BD681600208C1600207C
:106EC00000282DE9F0410D4622DD184E184FDFF85D
:106ED0006880C0EB00242846FFF7DCFFB4FBF0F32A
:106EE000FF2B184628BFFF203278C0B2C2B1FE2B5C
:106EF00014D9002340F21B123370D8F800303A80C6
:106F0000DA6240F20D125A634FF47A629A62E2E753
:106F1000084BD88980B2FFF77FFF0020BDE8F081E1
:106F2000E52BFBD8FDF718FBD5E700BF0E100020BE
:106F30008C160020681600206C140020012110B56A
:106F4000FFF7BEFF0A220B4B04461A800A4B18704B
:106F50000020FFF79FFF00FB04F3FF20B3FBF0F3DB
:106F6000E820064A11684843182101FB03031B0A65
:106F7000136010BD0C100020C0150020A8160020C2
:106F800010B50E4BDA79BAB1DC79D889002180B21C
:106F9000FFF742FFE4B20234E4B2B0FBF4F0212880
:106FA00038BF21202138092828BF09200430C0B269
:106FB000BDE81040FDF7D6BB0F20F9E768160020AA
:106FC00070B50D4B0021D8890A2680B2FFF724FF47
:106FD000B0FBF6F4054601220221A0B2FDF729FC20
:106FE0000648FDF71DFC012206FB1450BDE8704069
:106FF000114680B2FDF71DBC68160020A7AE000840
:1070000008B50020FFF7F4FEA0F59B536420053B74
:10701000584340F2E23390FBF3F080B208BD10B564
:1070200047F69670FDF7ECFAFDF7B6FA0446FFF75F
:10703000E7FF0A23B0FBF3F0013C80B2204410BD0F
:1070400010B5B0B1FDF744FAFDF7DAFAFDF7A4FA8E
:107050000446FFF7D5FF0A231922B0FBF3F0094BD2
:1070600080B21B682044B3FBF2F3C01A20EAE07040
:1070700010BD054B18690028B8BF0730C0F3CF001A
:10708000E2E700BFA81600204C16002038B51B4CC4
:107090000546E37A1907C3F3C00021D50020FFF7A6
:1070A000CFFF052300EBC000B0FBF3F303F120009A
:1070B0000122032180B2FDF7BCFBEDB1104B114A58
:1070C0001B6893420FD0104A93420CD0E37A1A0700
:1070D00048BF0020BDE8384058BF0120FDF742BB43
:1070E000FFF7AEFFE4E7E37A1B074CBF0748084809
:1070F000BDE83840FDF794BB38BD00BF68160020DE
:107100001010002068BE00080BC1000866AE000821
:1071100077AE0008F0B590F83C300446012B4FF0F4
:10712000020037D0236884F83D001A6A0E6822F006
:1071300001021A621A6A5D68986922F0020220F060
:10714000730030438E683243134EB3420BD1CE6886
:1071500022F00802324325F44075D1E905673E4329
:1071600022F0040235435D609861486809695863FC
:107170001A629A69002042F008029A619A6922F024
:1071800004029A619A690A439A61012384F83C00D7
:1071900084F83D30F0BD00BF002C01402DE9F04FD8
:1071A0009A469E4C9E4B87B01E6894F83D308046B0
:1071B000202B89469346109F04D00225284607B00D
:1071C000BDE8F08F3346192201219648FDF780F87B
:1071D0000028F2D194F83C30012BEED00123256831
:1071E00084F83C302B683A46D90758BF2B684FF0DB
:1071F00000015CBF43F001032B602B684FF00110CE
:1072000023F400632B60222384F83D30402384F86C
:107210003E30854B2164A4F82AA0E362638DC4F854
:1072200024B023852B6843F480632B602B6843F4E0
:1072300080732B603346FDF74BF800BB236808F0E2
:10724000FE001861314638465FFA88F5FDF710F800
:1072500008B1236C13E0236805905A693146059202
:107260009B6938460593059BFDF75AF880B1236C5E
:10727000042B04D12268136843F400731360236C59
:10728000042B4FF0000384F83C3078D1012595E7BA
:10729000236831463846C3F81090FDF741F801469F
:1072A0000028E4D122684FF00110136843F4807382
:1072B000136033463A46FDF70BF80028DFD1236808
:1072C00045F001051D6131463846FCF7D1FF054602
:1072D0000028BED1228D23689AB1012A27D11A68CD
:1072E00022F480621A6072B6236803905A6903928E
:1072F0009A690392039A1A6842F400721A6062B69D
:1073000009E004905A6904929A690492049A1A68EE
:1073100042F400721A60DFF81481238D1BBB202217
:1073200084F83C3084F83D2084F83E3046E7022A59
:107330001A680ED142F400621A6072B62368029095
:107340005A6902929A690292029A1A6822F4806239
:10735000D4E742F480621A6001905A6901929B69F5
:107360000193019BD7E7032B62D8012B09D131464A
:107370003846FDF705F810B3236C202B86D1032582
:107380001CE7022B3A4633464FF00001404624D119
:10739000FCF79EFF0028F2D172B623681A6842F407
:1073A00000721A601A69636A591C61621A70238D2F
:1073B000013B2385638D013B9BB2638562B62368E5
:1073C0001A69636A591C61621A70238D013B238517
:1073D000638D013B9BB263859FE7FCF779FF014614
:1073E0000028CCD12268136823F48063136072B63E
:1073F00023681A69636A581C60621A70238D3A46C2
:10740000013B2385638D4046013B9BB26385334638
:10741000FCF75EFF0028C0D0B1E700BFCC1300200E
:1074200094160020020010000000FFFF040001007D
:1074300031463846FCF7A4FF00289DD123681A691D
:10744000636A591C61621A70238D013B2385638D29
:10745000013B9BB2638523685A6952077FF55DAF94
:10746000AEE700BF0025A846444C2DE9884800201F
:10747000FFF764FD424F2268424BDFF82491424EF1
:107480003D601A60FFF7EAF92368DB6D7BB90122E2
:1074900023684FF4FA6083F86020FDF753FF4FF044
:1074A0008053C9F80030BFF34F8FBFF36F8FFFF7E2
:1074B000C7F9FFF7D3F92368D96D11B1002223680A
:1074C000DA650022236883F86020FFF7B9F9002904
:1074D0004ED00120FFF7B4FD83463868B8B1B0F54F
:1074E000E17F28BF4FF4E1708246FFF798FD5045D9
:1074F00002D2FFF794FD8246CBF1010303EB0A00B1
:10750000224B00F30F001B6800EB80101844337B04
:10751000A3B142F210711E4B1A68A2EB08028A4214
:1075200088BFD3F80080327B88BF08F1FA05824219
:1075300004DD1B689D4284BF307BC0B247F6697290
:10754000144B1B69002BB8BF0733C3F3CF0393421F
:1075500088BF0020337D33B10A22337D53438342F9
:10756000BCBF307D5043FFF7E9FCFDF70DF889E71C
:107570000A22094B1A80094B197083E7C8150020AD
:107580009C120020C415002068160020A8160020B8
:107590005C1B00204C1600200C100020C0150020A1
:1075A00004ED00E02DE9F3410646DDE908040F464D
:1075B000984640B94FF0500383F31188BFF36F8FA3
:1075C000BFF34F8FFEE70CB9FDF799FE64230193DB
:1075D000019B642B08D04FF0500383F31188BFF355
:1075E0006F8FBFF34F8FFEE795002A46A5212063DA
:1075F000019B03F0E9FB226B043D2A4422F00702C1
:10760000002F00F095807B1E04F134001F3713F823
:10761000011F00F8011B197809B1BB42F7D1002303
:1076200084F853304346052B28BF0523E362636586
:10763000C3F106030021A3614FF08073E165A165EA
:107640006161A1622461646284F8601042F8043CC4
:107650003E4B26F0010642F8086C42F80C3C42F81A
:10766000201C403A2260FFF7F9F8394A394D136877
:10767000394E013313602B68002B5CD12C601268EB
:10768000012A2ED132464FF0FF3C14201F4602F152
:107690000801C2E9011CC2E9031100FB03F1013337
:1076A000062B775002F11402F1D12C4A02F10803A3
:1076B000C2E9013CC2E90333294B176003F1080119
:1076C000C3E9011CC3E9031126491F6001F1080049
:1076D0000F60C1E9010CC1E9030023490A60234A94
:1076E0001360234A23491368086801331360012398
:1076F000E26A9340034314200B6000FB0260211DEB
:10770000FDF7F1FDFFF79CF81B4B1B6863B12B687D
:10771000DA6AE36A9A4207D24FF08052174B1A6036
:10772000BFF34F8FBFF36F8F204602B0BDE8F081EB
:1077300084F8347076E7104B1B68002BD1D12B688E
:10774000DA6AE36A9A4298BF2C60CAE711530008CC
:1077500098160020C8150020D4150020AC16002073
:10776000C0160020441B0020CC150020D01500209E
:10777000A0160020A4160020581B002004ED00E0F5
:1077800037B50446D0E90010A569B4F9083022697C
:1077900001956469842B0CBF002303330094FFF729
:1077A00001FF03B030BD000010B5274C242200219A
:1077B000204603F009FB9623A3800523A3714FF411
:1077C000A0732422638000230721E37123722270B7
:1077D000E27A63F38202E272E27A63F34102E272D6
:1077E000627A63F301026272627A61F38502627205
:1077F00040F2D3120A21E2814FF4D272A1722282A6
:10780000627A63F387126272E27A63F34612E2727B
:10781000E27A63F30002E272E27A63F3C302E27295
:10782000E27A63F30412E2724FF46172628201221F
:10783000237563752283E1822373A276E37623772F
:10784000BDE81040FEF7B6BB68160020024BC02210
:107850000021186803F0B8BAF01000202DE9FF41AC
:1078600000230446019340B94FF0500383F311887D
:10787000BFF36F8FBFF34F8FFEE7026C42B14FF043
:10788000500383F31188BFF36F8FBFF34F8FFEE771
:10789000FDF790FD014650B9019B4BB14FF05003ED
:1078A00083F31188BFF36F8FBFF34F8FFEE711464D
:1078B000704E714F714DB6E0A568B5B90025002234
:1078C000A2600136A663626A002A63D004F1240034
:1078D000FDF7B6FD00285FD04FF08052674B1A606D
:1078E000BFF34F8FBFF36F8F56E0654B1B689D4210
:1078F00008D04FF0500383F31188BFF36F8FBFF3AD
:107900004F8FFEE7AB6D43B94FF0500383F31188FF
:10791000BFF36F8FBFF34F8FFEE7E96A6A6D013BDC
:107920009142AB65CAD0002BC8D105F1040840468E
:10793000FDF7B2FCDFF850C1524A58B91420EF6A83
:1079400078435CF800302BB901211368B94023EA71
:10795000010313606B6D1420C3F10601EB62A96192
:107960000125116805FA03F70F4300FB03C04146E8
:107970001760FDF7B8FCA2E70021606803F0FCF98E
:107980006368226C1344A2686360934224BF236837
:10799000636056E0002D9FD1FEF752FF012004B036
:1079A000BDE8F081019810B9FEF74AFFF7E719B971
:1079B000336802933B680393FEF742FFFDF70CFE2A
:1079C000FEF74CFF94F84430FF2B04BF002384F8EB
:1079D000443094F84530FF2B04BF002384F8453031
:1079E000FEF72EFF01A902A8FEF754FF00283AD1A6
:1079F000FEF734FFA26BE36B9A4224D1FEF720FF1F
:107A00001F4BDDF80480196804F110001831FDF7F0
:107A100053FC4046FDF796FC2046FFF719F8FEF7A9
:107A20005DFFC0B10121FEF719FFA26BE36B9A4223
:107A3000B8D2226CA66B002A9ED12368002B3FF49B
:107A40003BAF00253DE7FEF7FBFE2046FFF700F8C1
:107A5000FEF744FFE6E74FF080532B60BFF34F8FF4
:107A6000BFF36F8FDEE72046FEF7F2FFFEF736FF2B
:107A7000002094E73C1B00205C1B002004ED00E08C
:107A8000C8150020A4160020D4150020014B18684A
:107A9000FFF7E4BEC01100201FB54FF47A730F2129
:107AA000009303AA0123FFF779FB0446FFF7EEFFDB
:107AB000B4FA84F0400904B010BD00002DE9F04F85
:107AC00091460D46002785B0DFF8F0A1794C019072
:107AD0006B7895F800B08DF80B30FEF7FBFF06468B
:107AE000002852D0DAF8008094F83D20202A47D1AF
:107AF0004346192201217048FCF7EAFB00283FD1D8
:107B000094F83C20012A3BD0012284F83C202268D2
:107B100043461168C9075EBF116841F00101116059
:107B2000116821F400611160212284F83D20402277
:107B300084F83E200DF10B026262002101222164D3
:107B40006285A2F10112E262628D206822850268DC
:107B500042F4807202604FF4FA724FF00110FCF7A9
:107B6000B7FB48B92268019B41464FF4FA70136194
:107B7000FCF77EFB68B1236C236C002384F83C3057
:107B8000FEF7AEF90026FFF781FF304605B0BDE8ED
:107B9000F08F2268039051694FF4FA700391926953
:107BA00041460392039AFCF7BBFB40B1236C042BC4
:107BB000E2D12268136843F400731360DCE72268A3
:107BC000C2F810B0228DEAB92268516911F004019F
:107BD00049D0136843F400731360202384F83D30C8
:107BE000002384F83E3084F83C30FFF74FFFA8783C
:107BF00008B1FDF78BFF0137B94505F103053FF7E4
:107C000067AFC2E741464FF4FA70FCF789FB40B119
:107C1000236C042BB4D12268136843F400731360FF
:107C2000AEE7606A2368421C626202781A61628D64
:107C3000218D013A01F1FF3C92B21FFA8CFCA4F8AD
:107C400028C062855A695207BCD5BCF1000FB9D073
:107C5000821C6262427802391A61628D2185013A82
:107C600092B26285AEE7506910F480600FD06FF475
:107C700080635361042323642023216384F83C1030
:107C800084F83D30236C042B7FF47AAFC4E7DAF834
:107C90000010A1EB0801B1F5FA7F96D9236C84F8A6
:107CA0003C0043F0200323642023206384F83D300C
:107CB000E8E700BFCC13002002001000941600205B
:107CC00038B5124D04462A78824219D0104BC0B103
:107CD000C8221A74A1221A77782019220C49FFF7BA
:107CE000EDFE002C14BF002220220A4B2C705A718A
:107CF00014BF5F227F22DA7114BFC822C0225A72D9
:107D000038BDC0221A74A022E5E700BFF810002099
:107D1000000000201410002010B5124C617A627A25
:107D2000013161F3010203216272627A02F00302FF
:107D3000B2FBF1F101EB4101521A617A62F30101E8
:107D40006172607A10F0030008D0012806D0607AD2
:107D500000F00300831E5842584110BDFFF7B0FFEA
:107D6000F5E700BF681600202DE9F34105460E46F1
:107D700017469846FEF7AEFE044670B14FF4FA730C
:107D80003A460093314643462846FFF707FA40B18A
:107D9000FEF7A6F80024FFF779FE204602B0BDE802
:107DA000F081FFF773FEF8E773B5FEF793FE002846
:107DB00069D000233C4C019394F83D30202B13D123
:107DC00046F2A812394B1B68B3FBF2F21923534356
:107DD00022680193019B591E019163B920222363FC
:107DE00084F83C3084F83D20FEF77AF802B0BDE814
:107DF0007040FFF74BBE93699907EBD494F83C3081
:107E0000012BF1D0012384F83C3013680025DB07F7
:107E100058BF13684FF078005CBF43F00103136054
:107E20001368234923F400631360212384F83D3051
:107E3000102384F83E30D123256463851D4B616295
:107E4000E362638D60649BB22385F3B1606B1A4E6D
:107E500010328662194E4563C0E90B56FDF71AFED3
:107E600023681A6842F480621A601A6842F48072C9
:107E70001A6084F83C505A6842F440725A605A685A
:107E800042F400625A6002B070BD116841F4806132
:107E90001160116841F48071116084F83C305368BE
:107EA00043F4E0635360EEE7CC1300204C00002065
:107EB000141000200000FFFFD1670008AB67000826
:107EC0002DE9F0410020FCF7F7FB4FF00006FFF72B
:107ED000BDFC354D354CDFF8E080E089002180B2F3
:107EE0000A272E80A8F80060FEF796FFB0FBF7F097
:107EF0000122022180B2FCF79CFC2D48FCF790FC8B
:107F0000E089002180B2FEF787FFB0FBF7F303FBA7
:107F100017000022012180B2FCF78BFC2548FCF7FA
:107F20007FFCFCF7DDFC0828274609D818B3013888
:107F3000072820D8DFE800F01B2D1F061F1F1F0693
:107F4000102818D10024FEF735F8F8890122032102
:107F500080B22C80A8F80040FCF76BFCFFF724FFF0
:107F60004FF47A70FEF756FD2046BDE8F081E389B4
:107F700001339BB2E381FFF717FF2820FEF724FDB2
:107F8000E3899BB2B3F5B47F06D24FF4B473E381B7
:107F9000A0E7E389013BECE7E3899BB2B3F5027FFD
:107FA00098D94FF40273F2E7BA1100206816002046
:107FB000A7AE000879AE0008BC1100202DE9F84FEB
:107FC00000242646A0465F4D5F4B2F68DFF894A142
:107FD0001C605E4BAAF80080A3F80080FFF736FC17
:107FE0000020FCF769FBFCF77BFC78B108282F68C0
:107FF00009D80138564B072808D8DFE800F0846C10
:10800000077207070760102800F09A80DFF8409198
:10801000C4F5967399F80B20632BD8BFC82412F0CF
:10802000080FB9F8022092B276D040F252318A425B
:1080300088BFA9F80210B9F8022092B23B2A02D8F0
:108040003C22A9F802202A68D21BB2F5FA6F77D831
:10805000404A99F8150092F800B0BBF1000F69D0C2
:108060003D493E4A002814BF08461046FCF7D8FB9D
:108070003B48FCF7D5FBB9F80200032180B201228E
:10808000FCF7D7FB99F80B2013074CBF0020012009
:10809000FCF768FB3248FCF7C3FB99F81500BBF10D
:1080A000000F4AD02D4A2C4B002814BF104618460A
:1080B000FCF7B6FBFFF778FEFEF7A9FC89E7296815
:1080C000A21B0A44B2F5967FA0D95A7DD98A92B1F3
:1080D0005A880A4411E05A7D198BC2B15A880A4461
:1080E00017E02968A21B0A44B2F5967F8ED95A7D03
:1080F000D98A002AECD05A88521A92B25A801E3479
:108100002E68E4B282E75A7D198B002AE6D05A889D
:10811000521A92B25A8079E7B2F5E17F84BF4FF4E8
:10812000E172A9F80220B9F8022092B2092A8AD88D
:108130000A2286E70949084A94E7074A074BB3E74A
:10814000BDE8F88F5C1B00209C120020BA110020B3
:1081500068160020F81000207BAE00087DAE0008F5
:10816000B8B40008BC110020F8B52B4D0021E889F7
:1081700080B2FEF751FE294B1B68B3F5FA6F46D962
:10818000EB79002B34D0EB7903EB43134233DBB2B2
:1081900083424FF000043CD9214B224F1C60FFF773
:1081A00055FBEB7A204EC3F380005B073C803480A4
:1081B00020D50120FCF780FA1C48FCF731FB08238E
:1081C0001B4833803C80FCF72BFBFEF7F9FE194877
:1081D000FCF726FBFFF7E8FDFEF719FCFCF780FB38
:1081E00004465CB1FCF77CFB0446FEF710FCF8E7A4
:1081F0005A23CDE7FCF760FA0F48E9E7FCF770FB7C
:108200000446FEF704FC002CF8D00120F8BD002045
:10821000FCE72046FAE700BF681600205C1B002040
:108220009C120020BA110020BC1100207FAE000873
:108230008CAE000879AE000896AE00082DE9F84F24
:1082400005460F46514C524EFFF78EFF034600285D
:1082500076D1E17AC1F3C002090774D585B9A38844
:1082600060889BB280B2834228BF03461F2B81BF28
:10827000092003EB8303A03BB3FBF0F398BF2B462D
:108280003360E37AC3F3C0001B0766D50020FEF716
:10829000D7FE4FF0050800EBC000B0FBF8F808F17E
:1082A00020081FFA88F84FF00009FFF7CFFA394B82
:1082B000DFF808B1A3F80090E27AABF8009051071C
:1082C000C2F3800A4ED50120FCF7F6F93248FCF7DC
:1082D000A7FA304B3148A3F800900823ABF80030E0
:1082E000FCF79EFA012240460321FCF7A2FAE37A4A
:1082F0001A074CBF2A482B48FCF792FA2A48FCF789
:108300008FFAFEF75DFE2948FCF78AFAFFF74CFD6D
:10831000FEF77DFB3846FCF78FFF90B1A37A002B68
:1083200092D0234B196800298ED0224B1A684EF642
:108330006023A07A521A43439A4285D900233360BE
:108340000120BDE8F88F35B9A38862889BB292B24C
:108350009A4228BF1A46326093E7FEF771FE1FFA71
:1083600080F8A0E75046FCF7A7F91348FCF758FA45
:10837000404601220321FCF75CFAE37A1B074CBF5D
:1083800050460120FCF7EEF9C0E700BF6816002058
:108390009C120020BA1100209DAE0008A9AE000872
:1083A00066AE000877AE0008B8B4000879AE0008E1
:1083B000981500205C1B0020AEAE0008BC11002008
:1083C00038B50546C8B21446FCF776F9FFF73EFA11
:1083D0000023074A28461380064A1380FCF720FA38
:1083E000FFF7E2FC2046BDE83840FEF713BB00BFB4
:1083F000BA110020BC1100202DE9F84F28BB00263F
:108400003546BE4CDFF83C93FCF76AFA002E00F0CC
:10841000B580E37A13F0600F00F0B080102822D806
:10842000102823D8DFE810F0D400FA00FA00220068
:10843000EE00220022002200FA0022002200220088
:108440002200220022002200FA00831E58425841D6
:108450000121FFF7F3FE0128D1D1A94B1A68A94BDE
:108460001A60BDE8F88F202800F0C4804FF0000AA1
:10847000DFF8D482A44FA8F800A0A7F800A0FFF767
:10848000E5F95046FCF718F9E37ADFF8C0A213F0DB
:10849000040F00F0E8804FF00A0B0120FCF70CF904
:1084A0009A48FCF7BDF9DAF800000122B0FBFBF0B6
:1084B000022180B2FCF7BDF99548FCF7B1F9DAF872
:1084C00000300122B3FBFBF00BFB1030114680B2F1
:1084D000FCF7AFF98F48FCF7A3F9637A13F03C0F70
:1084E00022D0A37903B38C48FCF79AF9FCF78AFEF3
:1084F0008349844B894A09681B681268401A9A426A
:108500002CBF8018C018864B984240F2A0804EF6CF
:108510006023B0FBF3F0013080B201220221FCF7AE
:1085200088F98048FCF77CF90023A8F8003008237C
:108530007D483B80FCF774F90120FEF7A7FD7648E3
:10854000FCF76EF9FEF73CFD7848FCF769F9FFF798
:108550002BFC774AE37A002D00F0C58013F0080F5A
:10856000238A9BB200F0B2801F2B40F2AE8009211B
:1085700003EB8303A03BB3FBF1F3A7E0102829D85A
:1085800010283FF673AF01A353F820F0D1850008FF
:1085900037860008378600086D8400082B8600089F
:1085A0006D8400086D8400086D84000863840008F1
:1085B0006D8400086D8400086D8400086D840008D7
:1085C0006D8400086D8400086D84000863840008D1
:1085D00000254BE720287FF449AFE37A13F0600FC2
:1085E0003FF444AF4FF47A7200214846FFF7E8FEAB
:1085F00001263BE74FF47A7200214E48FFF7E0FE78
:10860000002633E7238A9BB2002B3FF42FAFE37A97
:10861000C3F34113012B08BF354627E74FF4FA7225
:1086200000214548FFF7CCFE20E7238A9BB2002BB0
:1086300018BF01251AE76788FFF7C0FC6388BFB23F
:108640009BB2BB423FF412AFFDF7B4FC0EE74FF410
:108650007A73B0FBF3F0013080B201220221FCF703
:10866000E8F836485EE7364B1978B9B1FEF788FC72
:108670002948FCF7D5F80120FEF708FD55B1022086
:10868000FCF770F80021DAF80000FEF719FCFCF79F
:1086900085F85CE72048FCF7C3F8F3E7DAF8000058
:1086A000FEF70EFCFCF77AF85DB10220FCF75AF8F1
:1086B0000120FEF7EBFC1848FCF7B2F8FEF760FC6F
:1086C00045E71548FCF7ACF8F2E700231360FFF725
:1086D0004BFD074600287FF4C0AEFCF7ADFDB8BBEC
:1086E000FEF795F990E613F0080F63889BB2EDD082
:1086F0001F2B3FF63CAF2B46E8E700BF6816002073
:108700005C1B002094150020BC110020C5AE0008A1
:10871000A7AE00089BAE0008B8B40008981500206A
:10872000B882010074AE0008A9AE000879AE000856
:108730009C120020B3AE0008BCAE00086AAE000870
:10874000F8100020B5AE0008BA110020A8160020CD
:1087500039463846FFF772FD0028C1D081E600BFD8
:108760002DE9F04F074600242D4B85B01A68DFF83D
:10877000C0A001920293029B019A1B682546A3EBBD
:10878000020B4FF47A73322203FB0BF3B3FBF2F3C9
:10879000DBB2C3F196025B43534341F2883293FB51
:1087A000F2F36024DBB25C436423B4FBF3F4E4B281
:1087B000602C28BF6024C4F16002D6B257BBA0462B
:1087C000B946DAF8000003924119404402F0E2FA97
:1087D000144B039A18684119404402F0DBFA124B1B
:1087E000DAF8000099192246484402F0D3FA0D4BFA
:1087F000224618680D4B4844991902F0CBFAFFF74E
:10880000D3FA2820FEF7E0F8BBF1320FB3D905B058
:10881000BDE8F08FB1460026651BB046EDB2D0E74B
:108820005C1B0020F4100020F910002059110020DA
:10883000F01000200122AE4B2DE9F04F0C211A70F0
:10884000002389B002900298DAB201FB0202946818
:1088500006930133002CF6D18368C3B1A54EA64B15
:10886000A64D2046336060332B60FBF725FFA44BF9
:108870001C80A44B1C80FEF7E9FF029B9B68984775
:10888000A14B0120336060332B60FFF769FF0025A7
:1088900001264FF0FF3B2F46AA462C46CDE9045552
:1088A000039501954FF00C09019B09FB03F9029B0D
:1088B00003EB0908D8F80810002900F02D81BAF15F
:1088C000000F40F029815046FBF7F6FE8C4B8D4996
:1088D000A3F800A08D488E4B0068A1F800A019688D
:1088E000091A40F6B73081424DD9029A52F8090070
:1088F000002848D007B91F68FBF72AFC00EB4000AE
:10890000810083485431006809B2A0EB070C81480C
:10891000C07A10F0100F14BF0A201420BCFBF0FC2A
:108920000FFA8CFC9CFBF1F001FB10C10FFA81FAED
:10893000D34507910FD0FEF789FF00200799704BB0
:10894000C1F1600119806F49029B088053F809004A
:10895000FBF766FF0126FBF7C3FF059B81468342B9
:1089600018BF0024082839D8002800F08C80411E48
:10897000DFF89CB1072900F28680DFE801F0558717
:10898000848E848484A6FEF761FFD8F80810884797
:108990001DB1049BFBB10023049310219DF8180026
:1089A000019BB1FBF0F101264FEA031CBCFBF0F088
:1089B00006FA01F10139C0B289B281404D48006820
:1089C00080F85F104D48C1F30721006880F85F1000
:1089D0004FF0FF3ABFE72E460495F9E710280ABF8B
:1089E0004FF001084FF000080027C4F59671632985
:1089F000D8BFC82426B1FFF7D7F92820FDF7E4FF38
:108A00004349424809680068D346091A47F2305082
:108A1000814288BF00274FF0000694BFC2464FF046
:108A2000010ACDF814903DE7002F4CD1D8F804107E
:108A3000002959D0DFF8B8B08BF8007088479BF850
:108A400000100546E1B12B492B4BDFF8B0B00B60AD
:108A500038466033CBF80030FBF72EFE284B294810
:108A60001F800780FEF7F2FED8F8080080472648EE
:108A7000204908606030CBF800003846FFF770FEF0
:108A800001201B4908704FF00008AEE7DFB9019DD7
:108A90000135EBB201933D46F5E7DBF80010039B8F
:108AA000C91A2144B1F5967FEDDDD8F80430984716
:108AB000051E14BF4FF47A710021DBF80030CB188B
:108AC0001E340393E4B20027DDE7DBF80010039BBC
:108AD000C91A2144B1F5967FD5D9019B0133DBB288
:108AE0000193DBF80030EBE74FF001087DE700BFB2
:108AF0007D010020F0100020F9100020F41000206B
:108B0000BA110020BC11002025100020941500206F
:108B10005C1B00206816002009B0BDE8F08F00BF84
:108B200008B50248FFF786FE002008BD500000206F
:108B300008B50248FFF77EFE002008BDF8000020BF
:108B400008B50248FFF776FE002008BD400100206E
:108B500008B50248FFF76EFE002008BDB0000020F7
:108B6000AE4AAF492DE9804811600C210023AD4A7F
:108B70000A2411701022AC48DFF81893DFF818832C
:108B8000AA4FAB4DA9F80030A8F800303B7000F1B7
:108B900060032B60A74EA84B89B030601A70A749BC
:108BA0001122113802F0E8F8CDE906670595A44DC9
:108BB000CDF81090CDF80880192229467820FEF7CC
:108BC0007DFF20B9013CF7D1AF229E4B5A70532351
:108BD0009D4A9E48195C013B02F8011BFAD2002312
:108BE0009B499C4A11F801090133542B02F8010BEF
:108BF000F8D1994CFBF76CFC607A984E00F00100BC
:108C0000FFF75EF8964B974F1D68039305F57A655D
:108C1000039B1B689D4232D93368BB4209D0039B3A
:108C20001D68FBF75DFE08B1039B1D68FDF7EFFEB5
:108C3000EEE7069B894A18681146002300F1010CF3
:108C400091F805E0023100F813E091F802E00CF829
:108C500013E00133302BF3D1059B19680023481C26
:108C600092F865C0023201F813C092F862C000F8B1
:108C700013C00133302BF3D1FFF796F8D1E77A4BCD
:108C80001B782BB142F2107201217848FFF798FB54
:108C9000774D2B78642B03D10520FDF795FEF8E77F
:108CA000632B0ED1E37E012B0BD8E37E0133DBB2C5
:108CB000E376FDF77FF942F2107201216D48FFF76C
:108CC0007FFB667AB60906D0607A012680090138F2
:108CD000C0B2FFF791FB4FF000094D46FBF700FED5
:108CE000074600284DD10026E089634B002180B261
:108CF0001D60FEF791F80020FEF7A2F9AF23514A5C
:108D000031288046537016D8637A13F03C0F12D086
:108D1000039B5A4A1B6812689B1A4EF660229342C4
:108D200009D9039B56491B6809685B1A934282BFA5
:108D3000AE23444A5370FEF772F90746FEF786FDEC
:108D4000029B053F1D80049BBFB21D80E37A9A07FA
:108D5000C3F3400A40F118810120FBF7ADFCB84590
:108D600040F202814748FBF75BFD029B049A1D809D
:108D7000082345481380FBF753FDFEF721F9CA4647
:108D800079E1AF232F4A00205370FBF795FC002EAA
:108D9000AAD1013F072FA7D801A353F827F000BF9E
:108DA000538F00085D8F0008E98C0008498F000888
:108DB000E98C0008E98C0008E98C0008C18D0008E6
:108DC0000120FBF779FC0026304FDFF8D0A0DFF858
:108DD000A080FEF73BFD029B38461D80049B1D8052
:108DE000FBF71EFD029B049A1D8008235AF82600FB
:108DF0001380FBF715FD731E0B2B75D8DFE803F00E
:108E0000065052545A5C888C93969B9F204B18684E
:108E1000FCF7F2FA0122052180B281E01010002057
:108E2000A8B70008BE11002025100020F81000206F
:108E3000F4100020F01000200F100020BBC200082A
:108E40000000002014100020EC14002018C00008BE
:108E5000BFC00008401500206816002000F8000878
:108E60005C1B002055AA0DF064160020CDAE000852
:108E70006C020020E2AE00089C1200209815002031
:108E8000941500200BAF00088CAE0008FDAE000862
:108E9000D4060020BC110020BA1100207CB60008C6
:108EA0007E4BB4E77E4BB2E7039B18686423B0FBAC
:108EB000F3F0AFE77B4BF8E74FF00003B4F812B0E4
:108EC0006382794B1FFA8BFB18690028B8BF073003
:108ED000C0F3CF00FBF794FB0122062180B2FBF721
:108EE000A8FC724BA3F812B0FEF75EFFFBF7F8FC8C
:108EF00002283FF4F8AE012807D10D220136F6B260
:108F0000B6FBF2F302FB1366F6B2FDF780FD60E7F5
:108F10000020FEF795F87DE7FEF772F801220321A5
:108F2000FBF787FCE0E7FEF74BF8DDE701220221C3
:108F300098F80000F4E7012200201146F0E7FEF760
:108F40006EF80122032167E7FFF738F8FDF732F8E2
:108F5000CAE60020FFF750FA0126C5E65448FFF79D
:108F600069FCFDF727F8F7E75248FBF759FC0020AA
:108F7000FEF78CF85048FBF753FC60880122032170
:108F800080B2FBF756FCF0E65046FBF795FB079BDB
:108F900093F800B0BBF1000F3AD0484B5422009335
:108FA000514610230C20FBF745FBFDF7E9FFB8F114
:108FB000370F39D8B8F12C0F6CD9B8456CD8B9F146
:108FC000000F3FF4DCAE0022CA46069B1B68BBF1D3
:108FD000000F2CD003F136015F3301F8015F994295
:108FE000FBD1059B1B6803F136015F3301F8015F7C
:108FF0009942FBD1382302990B80049B1D80002AE3
:109000003FD1E37ADB072DD40020FEF73FF832E0B2
:109010002B4B54220093594610235846FBF70AFB6A
:109020005423029A1380C0E74FF00109C5E7591E87
:10903000283301F8015F9942FBD1059B1B68591E3B
:10904000283301F8015F8B42FBD1029B1D80049BFA
:109050001D80002AD5D000211A4B292200930846F2
:10906000102314E01A22039B1968B1FBF2F302FBF0
:1090700013130F2BC8D8FEF797FED146FDF7C7FC98
:109080002CE6104B29220093002110233720FBF7F8
:10909000D1FAF0E7B845EED9012296E73C0B002063
:1090A000A40D0020981500204C1600206816002002
:1090B00080010020A9AE000812AF000818C0000807
:1090C000EC1400204CC300082DE9F74F8146FBF754
:1090D0003FF8244E00EB40003368840000200093EA
:1090E000FBF7EAFA204B002501224FF0FF319846AA
:1090F0001E4F5434A4B23D801D80336800981B1A63
:109100001B48C07A10F0100F14BF0A201420B3FBC4
:10911000F0F31BB293FBF4F004FB103B0FFA8BFA55
:1091200051450AD0FEF792FBCBF1600348463B80E5
:10913000A8F80050FBF774FB01220192FBF7D0FB6B
:10914000019A28B1431E5842584103B0BDE8F08F40
:1091500022B1FEF729FE2820FDF736FC51460022F9
:10916000CBE700BF5C1B0020BC110020BA1100201F
:10917000681600202DE9F74F2B48FFF7A5FF0028C0
:109180004DD00023294D2A4F2A4EDFF8AC806B8248
:109190006C8A4FF00009A4B264BBA146A346FBF75A
:1091A00097F94FF0000A8144FEF750FB4046A7F8BC
:1091B00000B0A6F800B0FBF733FBC4F385035FFAF9
:1091C0008AF29A42019306D24046FBF729FB0AF144
:1091D000010A019BF3E7FEF7E7FD01346420FDF788
:1091E000F3FB102CDBD1C9F30F10FBF709FA80B2A7
:1091F0006882CDE7FEF72AFB1020A7F80090A6F8BA
:109200000090FBF7AFFA688A012280B20421FBF7D5
:1092100010FBFEF7C9FD4FF49660FDF7D5FB00206B
:1092200003B0BDE8F08F00BF18AF0008681600203B
:10923000BA110020BC110020A7AE000808B50C48E8
:10924000FFF742FF90B1FEF7AFFA0020FBF734FAC8
:109250000023084A08481380084A1380FBF7E0FA05
:10926000FEF7A2FD4FF4FA60FDF7D4FB002008BD25
:1092700059AF0008BA11002084AF0008BC110020CB
:109280002DE98048142091B0FDF79EFB64238A4CA1
:109290008A4E2370FDF71EFC2546002800F08F80C3
:1092A0003A20FEF7F9FB002800F089800D223A20D1
:1092B0008349FEF703FC08B1012323703220FDF738
:1092C00083FB00227F4B1A60737A9B0903D04FF413
:1092D000FA60FDF779FB102200210CA801F074FD63
:1092E0001022002108A801F06FFD102200250DEBCF
:1092F0000200002101F068FD737AA846C3F38303DE
:10930000092B88BF09222F464FF00304A94682BFCC
:10931000737A62F385037372C82240F6E441737A6C
:10932000C3F3830302FB13130193634B93F800A071
:10933000BAF1020F5BD10623A82102AA3220FEF760
:1093400013FD0123B521322002AABDF90850BDF951
:109350000A80BDF90C70FEF707FD9DF80840A410C7
:10936000013CE4B2737A03F00303022B06D1032C11
:1093700004D0B4FA84F04009FEF7A2FC10AB03EB72
:10938000490323F8105C23F8208C23F8307C4E4BE3
:109390000DF1300C1B7809F10109002B4ED15FFA59
:1093A00089F35A0008A804A9072B44D8013322F8EE
:1093B0000C5022F800805752DBB20232F4E7FDF77E
:1093C00089FB70B13220FEF767FB50B10C223220CE
:1093D0003E49FEF773FB00283FF470AF02232B7069
:1093E0006CE7737A6FF3850373726323F7E7BAF15F
:1093F000010FB7D10623514602AA3A20FEF7B4FC6A
:10940000534610213A2002AABDF80850BDF80A8040
:10941000BDF80C70FEF7A8FC9DF908309DF80840D7
:10942000002BA8BF0324EDBA98FAB8F8FFBAB8BF6A
:10943000C4F3410496E70123234A13700020024637
:109440000146034609F007090DF1200A0DF1100E3F
:109450003CF902BB01305B443AF902BBC0B259444B
:109460003EF902BB08285A44F2D1002BB8BF07339B
:10947000C5EBE303002BB8BF5B420029B8BF07313F
:10948000C8EBE1010029B8BF4942002AB8BF073242
:10949000C7EBE202002A1944B8BF5242019B0A44BA
:1094A0009342B8BF0A4B4FF06400BEBF1A68054B29
:1094B0001A60FDF789FA2FE76C0200206816002079
:1094C000C0C000089815002098120020E7C00008CE
:1094D0005C1B0020184B194A1A60194B194A1A6074
:1094E000194ADA60194A9A61194A5A62194A1A6382
:1094F000194B1A4A1A601A4ADA601A4A9A611A4AC9
:109500005A621A4A1A631A4B1A4A1A601A4ADA60DD
:109510001A4A9A611A4A5A621A4B1B4A1A601B4A23
:10952000DA601B4A9A611B4A5A621B4A1A631B4A39
:10953000DA631B4A9A647047800100208DAF0008EF
:10954000B0000020E0AF000801B000086FB00008D4
:10955000A2B00008D4B00008F80000203DB1000817
:1095600056B1000883B10008CEB1000800B200086F
:109570004001002035B200085BB2000899B2000833
:10958000C9B2000850000020FCB2000824B3000853
:1095900066B30008A9B30008C3B30008ECB3000821
:1095A00017B4000830B5284B1A68284B12B10122B5
:1095B0001A6030BD26491A600B681B6B1A68B2F13D
:1095C000A53F0BD15A68B2F1A53F07D19A68B2F115
:1095D000A53F03D1DB68B3F1A53F0ED00B680B6844
:1095E000BFF34F8F1B491C4BCA6802F4E062134360
:1095F000CB60BFF34F8F00BFFDE7184B1B68B3FA7A
:1096000083F31422DBB2C3F11F035A431448855875
:10961000841845B94FF0500383F31188BFF36F8F5F
:10962000BFF34F8FFEE7656808326D6802446560DE
:10963000954204BF6A686260142202FB03035B6800
:10964000DB680B60B5E700BF9C160020601B0020A4
:10965000C815002000ED00E00400FA05A416002063
:10966000D41500202DE980484FF6FF07384A394DC0
:109670001368394E43F010031360EA68374C3A40E0
:109680003243B1B0EA60FCF71DF8A269002142F054
:109690000102A261A2696FF00B0002F001020492C4
:1096A000049BEB683B403343EB60FAF77FFD0021FE
:1096B0006FF00A00FAF77AFD00216FF00900FAF75F
:1096C00075FD00216FF00400FAF770FD00216FF0C6
:1096D0000300FAF76BFD0F216FF00100FAF766FD4A
:1096E0000F214FF0FF30FAF761FD636813F00C0FA4
:1096F00007D0636803F00C03082B35D16368DD03E2
:1097000032D42368236823F0F80343F080032360F6
:10971000636803F00C03082B32D0002310490B6060
:10972000104B18682268920100F15E83626822F48F
:10973000741242F46012626001220A6019682268A1
:1097400097011DD41A68521A022AF8D918E000BFEE
:109750000020024000ED00E00003FA050010024086
:1097600060004242941600200122BC4B1A60BC4BA0
:10977000196822689007C5D41A68521A022AF8D9C3
:10978000B84A136813F0060F00F03483636843F49B
:10979000E0636360636843F460536360636823F06D
:1097A000F003636023689E0100F131834FF47A7205
:1097B0006368AD4F23F4404343F4004363603B6868
:1097C000B3FBF2F3013BB3F1807F09D2F021A74A4A
:1097D0005360A74B83F82310002393600723136083
:1097E000A24A4FF0807A1368A24E4FF0030B4FF05D
:1097F000020943F0040313600F214FF0FF30FAF722
:10980000D5FC73689C4D23F0E06343F08063736084
:10981000A3699A4843F02003A361A36924A903F034
:1098200020030893089BA3694FF0010843F0040349
:10983000A361A36903F004030793079BA36943F0A3
:109840000803A361A36903F008030693069BC5F808
:1098500010A0CDE924BBCDF89C90FCF761F97368AA
:10986000284643F0E06343F40043736048F2FF731B
:1098700024A9CDE9243BFCF753F94FF6FF73804848
:1098800024A92493FCF74CF94FF4F043284624A96B
:10989000CDE92438CDF89CB0FCF742F94FF00063D5
:1098A0002B614FF080532B614FF000532B614FF031
:1098B000804300262B614FF410734FF4807B24A962
:1098C000CDE92436CDF89880FCF72AF924A9CDE912
:1098D00024B8CDF89C90FCF723F9C5F810A01E2001
:1098E000C5F810A0FCF712F9C5F810B0636905219E
:1098F00043EA0803636163690B2003EA08030593E5
:10990000059BFAF753FC4FF400635E4C052123607E
:109910001020FAF74BFC4FF480330521236011200F
:10992000FAF744FC4FF4003357482360574A584B2A
:10993000584CC3E900024FF48042C3E90266C3E910
:109940000426C3E906661E62FCF7C6F94FF46023DD
:10995000204605F5E055E361C4E902B8256066617B
:109960006660C4F81090FCF7A9FC94F824304345D5
:1099700017D0226884F824809368D90700F1AE825A
:10998000454B9B68DB0700F1A982AA4240F0A68202
:10999000536823F4702343F480335360002384F826
:1099A0002430002194F824300A91012B11D0012396
:1099B000226884F82430536B23F01F0343F007031D
:1099C0005363136923F4600343F44003136184F881
:1099D0002410002194F824300991012B11D0012387
:1099E000226884F82430536B23F4787343F4907323
:1099F0005363136923F0605343F04053136184F8B9
:109A000024104FF0080E01230025CDE924E304269D
:109A10004FF4405324A91F48CDE92A532695299590
:109A200027952896FCF730FB022324A91948269590
:109A30002593FCF729FB032324A916482593FCF75B
:109A400023FB144824A92596FCF71EFB2268114D20
:109A5000536843F08003536020E000BF000042429F
:109A600094160020002002404C00002010E000E08E
:109A700000ED00E00000014000080140001401403A
:109A8000000C014000E100E000540040F824010017
:109A9000CC130020A0120020002801402846FCF72B
:109AA00083FD06460028F9D1BF4DC04B4FF0010899
:109AB0002B604FF48073C5E902384FF46023EB61EB
:109AC00002236861686028462B61FCF7F7FB95F874
:109AD00024300C96434510D02A6885F82480536BB7
